{
  "_format": "hh-sol-artifact-1",
  "contractName": "MacMain",
  "sourceName": "contracts/MacMain.sol",
  "abi": [
    {
      "inputs": [
        {
          "internalType": "address",
          "name": "_advertismentContractAddress",
          "type": "address"
        },
        {
          "internalType": "address",
          "name": "_paymentContractAddress",
          "type": "address"
        },
        {
          "internalType": "address",
          "name": "_accessControlContractAddress",
          "type": "address"
        }
      ],
      "stateMutability": "nonpayable",
      "type": "constructor"
    },
    {
      "inputs": [
        {
          "internalType": "uint256",
          "name": "advertismentId",
          "type": "uint256"
        }
      ],
      "name": "acceptAdvertisment",
      "outputs": [],
      "stateMutability": "nonpayable",
      "type": "function"
    },
    {
      "inputs": [],
      "name": "accessControlContract",
      "outputs": [
        {
          "internalType": "contract IAccessControl",
          "name": "",
          "type": "address"
        }
      ],
      "stateMutability": "view",
      "type": "function"
    },
    {
      "inputs": [],
      "name": "advertismentContract",
      "outputs": [
        {
          "internalType": "contract IAdvertisment",
          "name": "",
          "type": "address"
        }
      ],
      "stateMutability": "view",
      "type": "function"
    },
    {
      "inputs": [
        {
          "internalType": "address",
          "name": "creator",
          "type": "address"
        },
        {
          "internalType": "uint256",
          "name": "budget",
          "type": "uint256"
        },
        {
          "internalType": "address",
          "name": "token",
          "type": "address"
        },
        {
          "internalType": "uint256",
          "name": "milestoneThreshold",
          "type": "uint256"
        },
        {
          "internalType": "uint256",
          "name": "CPM",
          "type": "uint256"
        }
      ],
      "name": "createAdvertisment",
      "outputs": [],
      "stateMutability": "nonpayable",
      "type": "function"
    },
    {
      "inputs": [
        {
          "internalType": "uint256",
          "name": "id",
          "type": "uint256"
        }
      ],
      "name": "getAdvertisment",
      "outputs": [
        {
          "components": [
            {
              "internalType": "uint256",
              "name": "id",
              "type": "uint256"
            },
            {
              "internalType": "address",
              "name": "advertiser",
              "type": "address"
            },
            {
              "internalType": "address",
              "name": "creator",
              "type": "address"
            },
            {
              "internalType": "uint256",
              "name": "budget",
              "type": "uint256"
            },
            {
              "internalType": "bool",
              "name": "isAccepted",
              "type": "bool"
            },
            {
              "internalType": "address",
              "name": "token",
              "type": "address"
            },
            {
              "internalType": "bool",
              "name": "isFunded",
              "type": "bool"
            },
            {
              "internalType": "bool",
              "name": "isActive",
              "type": "bool"
            },
            {
              "internalType": "uint256",
              "name": "milestoneThreshold",
              "type": "uint256"
            },
            {
              "internalType": "uint256",
              "name": "CPM",
              "type": "uint256"
            },
            {
              "internalType": "uint256",
              "name": "amountToBePaid",
              "type": "uint256"
            },
            {
              "internalType": "uint256",
              "name": "clicks",
              "type": "uint256"
            }
          ],
          "internalType": "struct IAdvertisment.Advertisment",
          "name": "",
          "type": "tuple"
        }
      ],
      "stateMutability": "view",
      "type": "function"
    },
    {
      "inputs": [
        {
          "internalType": "address",
          "name": "account",
          "type": "address"
        }
      ],
      "name": "grantAdvertiserRole",
      "outputs": [],
      "stateMutability": "nonpayable",
      "type": "function"
    },
    {
      "inputs": [
        {
          "internalType": "address",
          "name": "account",
          "type": "address"
        }
      ],
      "name": "grantCreatorRole",
      "outputs": [],
      "stateMutability": "nonpayable",
      "type": "function"
    },
    {
      "inputs": [
        {
          "internalType": "bytes32",
          "name": "role",
          "type": "bytes32"
        },
        {
          "internalType": "address",
          "name": "account",
          "type": "address"
        }
      ],
      "name": "hasRole",
      "outputs": [
        {
          "internalType": "bool",
          "name": "",
          "type": "bool"
        }
      ],
      "stateMutability": "view",
      "type": "function"
    },
    {
      "inputs": [],
      "name": "paymentContract",
      "outputs": [
        {
          "internalType": "contract IPayment",
          "name": "",
          "type": "address"
        }
      ],
      "stateMutability": "view",
      "type": "function"
    },
    {
      "inputs": [
        {
          "internalType": "uint256",
          "name": "advertismentId",
          "type": "uint256"
        }
      ],
      "name": "rejectAdvertisment",
      "outputs": [],
      "stateMutability": "nonpayable",
      "type": "function"
    }
  ],
  "bytecode": "0x60806040523480156200001157600080fd5b5060405162001b3c38038062001b3c83398181016040528101906200003791906200016c565b826000806101000a81548173ffffffffffffffffffffffffffffffffffffffff021916908373ffffffffffffffffffffffffffffffffffffffff16021790555081600160006101000a81548173ffffffffffffffffffffffffffffffffffffffff021916908373ffffffffffffffffffffffffffffffffffffffff16021790555080600260006101000a81548173ffffffffffffffffffffffffffffffffffffffff021916908373ffffffffffffffffffffffffffffffffffffffff160217905550505050620001c8565b600080fd5b600073ffffffffffffffffffffffffffffffffffffffff82169050919050565b6000620001348262000107565b9050919050565b620001468162000127565b81146200015257600080fd5b50565b60008151905062000166816200013b565b92915050565b60008060006060848603121562000188576200018762000102565b5b6000620001988682870162000155565b9350506020620001ab8682870162000155565b9250506040620001be8682870162000155565b9150509250925092565b61196480620001d86000396000f3fe608060405234801561001057600080fd5b506004361061009e5760003560e01c80637a2f0fd4116100665780637a2f0fd4146101315780638c76b1db1461014f57806391d148541461017f5780639c91dd56146101af578063ad617fda146101cd5761009e565b80630ffdfb8d146100a357806319d3b81a146100bf57806321fcc185146100db57806349f77a4d146100f95780634d43e6f014610115575b600080fd5b6100bd60048036038101906100b89190611024565b6101e9565b005b6100d960048036038101906100d4919061109f565b610402565b005b6100e3610691565b6040516100f0919061112b565b60405180910390f35b610113600480360381019061010e9190611146565b6106b7565b005b61012f600480360381019061012a919061109f565b6108b2565b005b610139610b41565b6040516101469190611194565b60405180910390f35b61016960048036038101906101649190611146565b610b65565b60405161017691906112de565b60405180910390f35b61019960048036038101906101949190611330565b610c0f565b6040516101a6919061137f565b60405180910390f35b6101b7610cb7565b6040516101c491906113bb565b60405180910390f35b6101e760048036038101906101e29190611146565b610cdd565b005b600260009054906101000a900473ffffffffffffffffffffffffffffffffffffffff1673ffffffffffffffffffffffffffffffffffffffff166391d14854600260009054906101000a900473ffffffffffffffffffffffffffffffffffffffff1673ffffffffffffffffffffffffffffffffffffffff1663e58c45346040518163ffffffff1660e01b8152600401602060405180830381865afa158015610294573d6000803e3d6000fd5b505050506040513d601f19601f820116820180604052508101906102b891906113eb565b336040518363ffffffff1660e01b81526004016102d6929190611436565b602060405180830381865afa1580156102f3573d6000803e3d6000fd5b505050506040513d601f19601f82011682018060405250810190610317919061148b565b610356576040517f08c379a000000000000000000000000000000000000000000000000000000000815260040161034d90611515565b60405180910390fd5b60008054906101000a900473ffffffffffffffffffffffffffffffffffffffff1673ffffffffffffffffffffffffffffffffffffffff16630ffdfb8d86868686866040518663ffffffff1660e01b81526004016103b7959493929190611544565b6020604051808303816000875af11580156103d6573d6000803e3d6000fd5b505050506040513d601f19601f820116820180604052508101906103fa91906115ac565b505050505050565b600260009054906101000a900473ffffffffffffffffffffffffffffffffffffffff1673ffffffffffffffffffffffffffffffffffffffff166391d14854600260009054906101000a900473ffffffffffffffffffffffffffffffffffffffff1673ffffffffffffffffffffffffffffffffffffffff16638aeda25a6040518163ffffffff1660e01b8152600401602060405180830381865afa1580156104ad573d6000803e3d6000fd5b505050506040513d601f19601f820116820180604052508101906104d191906113eb565b336040518363ffffffff1660e01b81526004016104ef929190611436565b602060405180830381865afa15801561050c573d6000803e3d6000fd5b505050506040513d601f19601f82011682018060405250810190610530919061148b565b61056f576040517f08c379a000000000000000000000000000000000000000000000000000000000815260040161056690611625565b60405180910390fd5b600260009054906101000a900473ffffffffffffffffffffffffffffffffffffffff1673ffffffffffffffffffffffffffffffffffffffff16632f2ff15d600260009054906101000a900473ffffffffffffffffffffffffffffffffffffffff1673ffffffffffffffffffffffffffffffffffffffff1663e58c45346040518163ffffffff1660e01b8152600401602060405180830381865afa15801561061a573d6000803e3d6000fd5b505050506040513d601f19601f8201168201806040525081019061063e91906113eb565b836040518363ffffffff1660e01b815260040161065c929190611436565b600060405180830381600087803b15801561067657600080fd5b505af115801561068a573d6000803e3d6000fd5b5050505050565b600260009054906101000a900473ffffffffffffffffffffffffffffffffffffffff1681565b600260009054906101000a900473ffffffffffffffffffffffffffffffffffffffff1673ffffffffffffffffffffffffffffffffffffffff166391d14854600260009054906101000a900473ffffffffffffffffffffffffffffffffffffffff1673ffffffffffffffffffffffffffffffffffffffff16638aeda25a6040518163ffffffff1660e01b8152600401602060405180830381865afa158015610762573d6000803e3d6000fd5b505050506040513d601f19601f8201168201806040525081019061078691906113eb565b336040518363ffffffff1660e01b81526004016107a4929190611436565b602060405180830381865afa1580156107c1573d6000803e3d6000fd5b505050506040513d601f19601f820116820180604052508101906107e5919061148b565b610824576040517f08c379a000000000000000000000000000000000000000000000000000000000815260040161081b90611691565b60405180910390fd5b60008054906101000a900473ffffffffffffffffffffffffffffffffffffffff1673ffffffffffffffffffffffffffffffffffffffff166349f77a4d826040518263ffffffff1660e01b815260040161087d91906116b1565b600060405180830381600087803b15801561089757600080fd5b505af11580156108ab573d6000803e3d6000fd5b5050505050565b600260009054906101000a900473ffffffffffffffffffffffffffffffffffffffff1673ffffffffffffffffffffffffffffffffffffffff166391d14854600260009054906101000a900473ffffffffffffffffffffffffffffffffffffffff1673ffffffffffffffffffffffffffffffffffffffff1663e58c45346040518163ffffffff1660e01b8152600401602060405180830381865afa15801561095d573d6000803e3d6000fd5b505050506040513d601f19601f8201168201806040525081019061098191906113eb565b336040518363ffffffff1660e01b815260040161099f929190611436565b602060405180830381865afa1580156109bc573d6000803e3d6000fd5b505050506040513d601f19601f820116820180604052508101906109e0919061148b565b610a1f576040517f08c379a0000000000000000000000000000000000000000000000000000000008152600401610a1690611718565b60405180910390fd5b600260009054906101000a900473ffffffffffffffffffffffffffffffffffffffff1673ffffffffffffffffffffffffffffffffffffffff16632f2ff15d600260009054906101000a900473ffffffffffffffffffffffffffffffffffffffff1673ffffffffffffffffffffffffffffffffffffffff16638aeda25a6040518163ffffffff1660e01b8152600401602060405180830381865afa158015610aca573d6000803e3d6000fd5b505050506040513d601f19601f82011682018060405250810190610aee91906113eb565b836040518363ffffffff1660e01b8152600401610b0c929190611436565b600060405180830381600087803b158015610b2657600080fd5b505af1158015610b3a573d6000803e3d6000fd5b5050505050565b60008054906101000a900473ffffffffffffffffffffffffffffffffffffffff1681565b610b6d610ed8565b60008054906101000a900473ffffffffffffffffffffffffffffffffffffffff1673ffffffffffffffffffffffffffffffffffffffff16638c76b1db836040518263ffffffff1660e01b8152600401610bc691906116b1565b61018060405180830381865afa158015610be4573d6000803e3d6000fd5b505050506040513d601f19601f82011682018060405250810190610c089190611900565b9050919050565b6000600260009054906101000a900473ffffffffffffffffffffffffffffffffffffffff1673ffffffffffffffffffffffffffffffffffffffff166391d1485484846040518363ffffffff1660e01b8152600401610c6e929190611436565b602060405180830381865afa158015610c8b573d6000803e3d6000fd5b505050506040513d601f19601f82011682018060405250810190610caf919061148b565b905092915050565b600160009054906101000a900473ffffffffffffffffffffffffffffffffffffffff1681565b600260009054906101000a900473ffffffffffffffffffffffffffffffffffffffff1673ffffffffffffffffffffffffffffffffffffffff166391d14854600260009054906101000a900473ffffffffffffffffffffffffffffffffffffffff1673ffffffffffffffffffffffffffffffffffffffff16638aeda25a6040518163ffffffff1660e01b8152600401602060405180830381865afa158015610d88573d6000803e3d6000fd5b505050506040513d601f19601f82011682018060405250810190610dac91906113eb565b336040518363ffffffff1660e01b8152600401610dca929190611436565b602060405180830381865afa158015610de7573d6000803e3d6000fd5b505050506040513d601f19601f82011682018060405250810190610e0b919061148b565b610e4a576040517f08c379a0000000000000000000000000000000000000000000000000000000008152600401610e4190611691565b60405180910390fd5b60008054906101000a900473ffffffffffffffffffffffffffffffffffffffff1673ffffffffffffffffffffffffffffffffffffffff1663ad617fda826040518263ffffffff1660e01b8152600401610ea391906116b1565b600060405180830381600087803b158015610ebd57600080fd5b505af1158015610ed1573d6000803e3d6000fd5b5050505050565b60405180610180016040528060008152602001600073ffffffffffffffffffffffffffffffffffffffff168152602001600073ffffffffffffffffffffffffffffffffffffffff16815260200160008152602001600015158152602001600073ffffffffffffffffffffffffffffffffffffffff168152602001600015158152602001600015158152602001600081526020016000815260200160008152602001600081525090565b6000604051905090565b600080fd5b600073ffffffffffffffffffffffffffffffffffffffff82169050919050565b6000610fbb82610f90565b9050919050565b610fcb81610fb0565b8114610fd657600080fd5b50565b600081359050610fe881610fc2565b92915050565b6000819050919050565b61100181610fee565b811461100c57600080fd5b50565b60008135905061101e81610ff8565b92915050565b600080600080600060a086880312156110405761103f610f8b565b5b600061104e88828901610fd9565b955050602061105f8882890161100f565b945050604061107088828901610fd9565b93505060606110818882890161100f565b92505060806110928882890161100f565b9150509295509295909350565b6000602082840312156110b5576110b4610f8b565b5b60006110c384828501610fd9565b91505092915050565b6000819050919050565b60006110f16110ec6110e784610f90565b6110cc565b610f90565b9050919050565b6000611103826110d6565b9050919050565b6000611115826110f8565b9050919050565b6111258161110a565b82525050565b6000602082019050611140600083018461111c565b92915050565b60006020828403121561115c5761115b610f8b565b5b600061116a8482850161100f565b91505092915050565b600061117e826110f8565b9050919050565b61118e81611173565b82525050565b60006020820190506111a96000830184611185565b92915050565b6111b881610fee565b82525050565b6111c781610fb0565b82525050565b60008115159050919050565b6111e2816111cd565b82525050565b610180820160008201516111ff60008501826111af565b50602082015161121260208501826111be565b50604082015161122560408501826111be565b50606082015161123860608501826111af565b50608082015161124b60808501826111d9565b5060a082015161125e60a08501826111be565b5060c082015161127160c08501826111d9565b5060e082015161128460e08501826111d9565b506101008201516112996101008501826111af565b506101208201516112ae6101208501826111af565b506101408201516112c36101408501826111af565b506101608201516112d86101608501826111af565b50505050565b6000610180820190506112f460008301846111e8565b92915050565b6000819050919050565b61130d816112fa565b811461131857600080fd5b50565b60008135905061132a81611304565b92915050565b6000806040838503121561134757611346610f8b565b5b60006113558582860161131b565b925050602061136685828601610fd9565b9150509250929050565b611379816111cd565b82525050565b60006020820190506113946000830184611370565b92915050565b60006113a5826110f8565b9050919050565b6113b58161139a565b82525050565b60006020820190506113d060008301846113ac565b92915050565b6000815190506113e581611304565b92915050565b60006020828403121561140157611400610f8b565b5b600061140f848285016113d6565b91505092915050565b611421816112fa565b82525050565b61143081610fb0565b82525050565b600060408201905061144b6000830185611418565b6114586020830184611427565b9392505050565b611468816111cd565b811461147357600080fd5b50565b6000815190506114858161145f565b92915050565b6000602082840312156114a1576114a0610f8b565b5b60006114af84828501611476565b91505092915050565b600082825260208201905092915050565b7f43616c6c6572206973206e6f7420616e20616476657274697365720000000000600082015250565b60006114ff601b836114b8565b915061150a826114c9565b602082019050919050565b6000602082019050818103600083015261152e816114f2565b9050919050565b61153e81610fee565b82525050565b600060a0820190506115596000830188611427565b6115666020830187611535565b6115736040830186611427565b6115806060830185611535565b61158d6080830184611535565b9695505050505050565b6000815190506115a681610ff8565b92915050565b6000602082840312156115c2576115c1610f8b565b5b60006115d084828501611597565b91505092915050565b7f43616c6c657220697320612063726561746f7200000000000000000000000000600082015250565b600061160f6013836114b8565b915061161a826115d9565b602082019050919050565b6000602082019050818103600083015261163e81611602565b9050919050565b7f43616c6c6572206973206e6f7420612063726561746f72000000000000000000600082015250565b600061167b6017836114b8565b915061168682611645565b602082019050919050565b600060208201905081810360008301526116aa8161166e565b9050919050565b60006020820190506116c66000830184611535565b92915050565b7f43616c6c657220697320616e2061647665727469736572000000000000000000600082015250565b60006117026017836114b8565b915061170d826116cc565b602082019050919050565b60006020820190508181036000830152611731816116f5565b9050919050565b600080fd5b6000601f19601f8301169050919050565b7f4e487b7100000000000000000000000000000000000000000000000000000000600052604160045260246000fd5b6117868261173d565b810181811067ffffffffffffffff821117156117a5576117a461174e565b5b80604052505050565b60006117b8610f81565b90506117c4828261177d565b919050565b6000815190506117d881610fc2565b92915050565b600061018082840312156117f5576117f4611738565b5b6118006101806117ae565b9050600061181084828501611597565b6000830152506020611824848285016117c9565b6020830152506040611838848285016117c9565b604083015250606061184c84828501611597565b606083015250608061186084828501611476565b60808301525060a0611874848285016117c9565b60a08301525060c061188884828501611476565b60c08301525060e061189c84828501611476565b60e0830152506101006118b184828501611597565b610100830152506101206118c784828501611597565b610120830152506101406118dd84828501611597565b610140830152506101606118f384828501611597565b6101608301525092915050565b6000610180828403121561191757611916610f8b565b5b6000611925848285016117de565b9150509291505056fea264697066735822122011002f6f5025929e821e30efdb827783d0d8102a73b50a8f77642eeb34e242e664736f6c63430008180033",
  "linkReferences": {},
  "deployedLinkReferences": {}
}